:020000040800F2
:1080000000000220A90F0108E5F50008E9F50008C5
:10801000FDF5000801F6000805F600080000000064
:1080200000000000000000000000000009F6000849
:108030000DF600080000000011F60008ED0F010821
:10804000ED0F0108ED0F0108ED0F0108ED0F01081C
:10805000ED0F0108ED0F0108ED0F0108ED0F01080C
:10806000ED0F0108ED0F0108ED0F0108ED0F0108FC
:10807000ED0F010851E0000879DF0008F5DF000886
:10808000D5E00008ED0F0108ED0F0108ED0F010824
:10809000ED0F0108ED0F0108ED0F0108ED0F0108CC
:1080A0004D0F010851BF0008ED0F0108ED0F010849
:1080B00001E60008ED0F0108E5C10008ED0F010819
:1080C000ED0F0108ED0F0108ED0F0108ED0F01089C
:1080D000ED0F0108ED0F0108ED0F0108ED0F01088C
:1080E000C10E0108ED0F0108ED0F0108ED0F0108A9
:1080F000ED0F0108ED0F0108ED0F0108ED0F01086C
:10810000ED0F0108ED0F0108ED0F0108ED0F01085B
:10811000ED0F0108ED0F0108ED0F0108ED0F01084B
:10812000ED0F0108ED0F0108ED0F0108ED0F01083B
:10813000ED0F0108ED0F0108ED0F0108ED0F01082B
:10814000ED0F0108ED0F0108ED0F0108ED0F01081B
:10815000ED0F0108ED0F0108ED0F0108ED0F01080B
:10816000ED0F0108ED0F0108ED0F0108ED0F0108FB
:10817000ED0F0108ED0F0108ED0F0108ED0F0108EB
:10818000ED0F0108ED0F0108ED0F0108ED0F0108DB
:10819000ED0F0108ED0F0108ED0F0108ED0F0108CB
:1081A000ED0F0108ED0F0108ED0F010800000000C0
:1081B00040F0BF6040F40030014BD860704700BF12
:1081C00000ED00E0C378F3B1154BDB68DB43C3F38C
:1081D00002234278C3F10401C9B28A40D2B20F210E
:1081E000194183780B4013431B01DBB202780D4920
:1081F000881880F80033500902F01F0201239340D1
:1082000041F82030704703785A0903F01F03012119
:10821000994002F12003034A42F82310704700BF3F
:1082200000ED00E000E100E021F0604121F07F017D
:108230000143014B9960704700ED00E021B1054B0F
:108240001A69104318617047024A136923EA000350
:108250001361704700ED00E04FF0E022136904283D
:108260000CBF43F0040323F004031361704700BF05
:1082700008B501214FF4807002F0E0F800214FF4BE
:108280008070BDE8084002F0D9B800BF10B4436860
:108290000A7923F0407323F4807343EA02230A68C7
:1082A000134343608468D1E9032313438A6813436B
:1082B000094A224013434A7943EA42038360C36A6E
:1082C00023F470030A7D013AD2B243EA0253C36237
:1082D0005DF8044B704700BFFDF7FFC0002303604B
:1082E0008380C0E90233036101230375704700BF37
:1082F00010B408494C68D0E900321343064A2240C2
:10830000134382681343C26813434B605DF8044B08
:10831000704700BF00230140E030FCFF0023C0E9AC
:108320000033C0E902337047836819B143F0010399
:108330008360704723F0010383607047436823F430
:10834000400323F400730B43436070474162826231
:10835000704700BF436823F01F0319434160704713
:10836000054A536818B143F400035360704723F47F
:1083700000035360704700BF00230140054A536863
:1083800018B143F480035360704723F480035360B3
:10839000704700BF0023014010B5092920D9C468E7
:1083A000A1F10A0C0CEB4C0C4FF0070E0EFA0CFE70
:1083B00024EA0E0403FA0CFC4CEA0404C460062A06
:1083C0001DD8436B013A02EB82024FF01F0C0CFAEE
:1083D00002FC23EA0C0301FA02F21A43426310BDC5
:1083E000046901EB410E4FF0070C0CFA0EFC24EA75
:1083F0000C0C03FA0EF343EA0C030361DFE70C2ACB
:108400000CD8036B073A02EB82021F24944023EA44
:10841000040301FA02F21A430263E0E7C36A0D3A69
:1084200002EB82021F24944023EA04039140194383
:10843000C162D4E7836843F080438360704700BF24
:108440008068C0F380707047836819B143F480631B
:108450008360704723F4806383607047836819B139
:1084600043F002038360704723F002038360704788
:10847000436823F46043013943EA41334360704762
:10848000436819B143F400634360704723F4006309
:1084900043607047C06C80B2704700BF014BD3F897
:1084A0000803704700200140836819B143F48073CA
:1084B0008360704723F4807383607047836819B1C9
:1084C00043F400738360704723F400738360704744
:1084D000054A536818B143F400535360704723F4BE
:1084E00000535360704700BF0023014010B50929B5
:1084F00022D9C468A1F10A0C0CEB4C0C4FF0070E0A
:108500000EFA0CFE24EA0E0403FA0CFC4CEA0404F6
:10851000C460836B0232C3F3015CA2EB0C02D2B2E3
:1085200002EB82024FF01F0C0CFA02FC23EA0C0350
:1085300091401943816310BD046901EB410E4FF076
:10854000070C0CFA0EFC24EA0C0C03FA0EF343EAB7
:108550000C030361DDE700BF836B23F44013013993
:1085600043EA01538363704782B000230193019073
:10857000019B19440191019B1A6002B0704700BF32
:10858000836823F470230B4383607047836823F46C
:1085900040130B4383607047836843F48003836018
:1085A000704700BF8068C0F380507047436819B1BE
:1085B00043F480634360704723F4806343607047F3
:1085C000436819B143F480534360704723F48053E8
:1085D0004360704782B0002301930190019B2833D0
:1085E0000B440193019B186880B202B0704700BF32
:1085F000C9B201238B401AB14268134343607047EC
:10860000426822EA03034360704700BF00680840E5
:10861000003818BF01207047C9430160704700BF90
:108620004368006810EA112006D0C9B201208840D2
:108630001840003818BF0120704700BF6FEA1121B1
:108640000160704708B501214FF0005001F0EAFECB
:1086500000214FF00050BDE8084001F0E3BE00BF2C
:1086600030B4094C226840F6FE73834022EA0302CC
:10867000D1E900352B438D682B43C9680B438340F8
:108680001343236030BC7047007400400023C0E9EE
:108690000033C0E90233704731B1074A1168012342
:1086A00083400B431360704703490B6801228240EB
:1086B00023EA02030B6070470074004039B1084A96
:1086C00051680009012383400B43536070470449FC
:1086D0004B6800090122824023EA02034B60704785
:1086E00000740040054A536818B143F00303536017
:1086F000704723F003035360704700BF00740040CD
:108700002AB1064B1A688140114319607047034A29
:108710001368814023EA010313607047007400402E
:1087200082B000230193054B0193019B083303445E
:108730000193019B196002B0704700BF00740040B4
:1087400082B000230193054B0193019B1433034432
:108750000193019B196002B0704700BF0074004094
:1087600008280CBF42EA012242EA0142014BC250F2
:10877000704700BF2074004082B000230193064B75
:108780000193019B2C3303EB90030193019B186829
:1087900080B202B0704700BF0074004039B1084A8F
:1087A00011684FF4805383400B43136070470449B2
:1087B0000B684FF48052824023EA02030B6070473B
:1087C000007400402AB1064B1A68814011431960B9
:1087D0007047034A1368814023EA0103136070471E
:1087E00000740040044B5B6B814001EA03000038D9
:1087F00018BF0120704700BF007400408140014B4A
:108800005963704700740040054B1A688140586BEB
:10881000084003D00A40101E18BF0120704700BF57
:10882000007400408140014B596370470074004060
:10883000036823F001030360002303604360836047
:10884000C360036121234361294B984231D0294BF6
:10885000984232D0284B984234D0284B984236D098
:10886000274B984238D0274B984239D0264B984214
:108870003AD0264B984217D0254B984219D0254B19
:1088800098421AD0244B98421CD0244B98421ED0B8
:10889000234B984220D0234B984221D0224B984220
:1088A00022D0224B984203D14FF03D5243F8AC2CDA
:1088B00070473D2243F8082C70474FF4746243F828
:1088C000202C70474FF4741243F8382C70474FF047
:1088D000746243F8502C7047154A43F8642C704773
:1088E000144A43F87C2C7047134A43F8942C704781
:1088F0001060024028600240406002405860024020
:108900007060024088600240A0600240B86002408F
:1089100010640240286402404064024058640240EF
:108920007064024088640240A0640240B86402405F
:108930003D000020400F002000003D2010B40368DF
:10894000134A1A400B68CC6823434C6923438C6953
:108950002343CC6923430C6A23434C6A23438C6A28
:1089600023434C6B23438C6B2343134303604269C3
:1089700022F00702D1E90B342343134343610B690F
:1089800043604B6883608B68C3605DF8044B70473D
:108990003F801CF00023C0E90033C0E90233C0E986
:1089A0000433C0E90633C0E90833C0E90A33C0E93B
:1089B0000C338363704700BF036819B143F00103B0
:1089C0000360704723F0010303607047036819B127
:1089D00043F400430360704723F40043036070478F
:1089E000036819B143F020030360704723F02003AC
:1089F0000360704741607047406880B2704700BFB5
:108A0000036822B143F4002303600161704723F43B
:108A100000230360F9E700BF036819B143F4802322
:108A20000360704723F48023036070470AB101613B
:108A30007047C160704700BF0068C0F3C040704716
:108A4000006800F001007047406900F0380070478E
:108A5000094B984294BFA3F20F43084B8A004CBFC6
:108A600058681868084020F0F02020F08210003884
:108A700018BF0120704700BF0F640240006402402D
:108A8000074B984294BFA3F20F43064B11F0005FCF
:108A900021F0F02121F0821114BFD9609960704754
:108AA0000F640240006402400B0613D543695AB1BB
:108AB00043F080034361802905D0036801F01E0163
:108AC000194301607047704723F080034361802998
:108AD00002D17047002AF0D1036801F01E0123EA99
:108AE00001030360704700BF104B984294BF104AC7
:108AF000104A21F0F02323F0C31393B1036803EA73
:108B0000D12303F01E0388004CBF50681068084052
:108B100020F0F02020F0821010B1181E18BF0120A4
:108B20007047436903F08003EDE700BF0F64024024
:108B30000060024000640240074B984294BFA3F2D9
:108B40000F43064B11F0005F21F0F02121F082115C
:108B500014BFD960996070470F64024000640240FE
:108B6000044B00221A605A609A60DA60024A5A6125
:108B7000704700BF003C0140FFFF7F008379002B5E
:108B80002FD010B41C4B1A68016822EA01021A6047
:108B90005A6822EA01025A60027902F1804202F523
:108BA0009E321468214311609968026821EA02012B
:108BB0009960D96821EA0201D9604179102909D068
:108BC00001F1804303F59E3319680A431A605DF88A
:108BD000044B7047996811439960D9680A43DA6079
:108BE000F5E7037903F1804303F59E331A680168C2
:108BF00022EA01021A607047003C01400023036032
:108C00004FF4406282808371704700BF024A13694B
:108C100003431361704700BF003C0140034B5B6995
:108C20001840003818BF0120704700BF003C0140C9
:108C3000014B5861704700BF003C0140034B5B692A
:108C40001840003818BF0120704700BF003C0140A9
:108C5000014B5861704700BF003C0140C0B2014B5E
:108C600018707047003C0240054A136818B143F47D
:108C700080731360704723F480731360704700BFE4
:108C8000003C0240054A136818B143F400731360B6
:108C9000704723F400731360704700BF003C02402C
:108CA000054A136818B143F480631360704723F4D6
:108CB00080631360704700BF003C0240024A1368A3
:108CC00043F4006313607047003C0240024A13689B
:108CD00043F4805313607047003C0240054B1A690F
:108CE000002A00DB7047044A5A6002F188325A6059
:108CF000F8E700BF003C024023016745024A1369C0
:108D000043F0004313617047003C0240044B5A6932
:108D1000D20704D5034A9A6002F144329A60704740
:108D2000003C02403B2A1908024A536943F0010300
:108D300053617047003C0240034AD37D03F07F0338
:108D40001843D075704700BF003C0240044B1A7DA9
:108D500002F0EF021A751A7D02431A75704700BFC0
:108D6000003C0240044B1A7D02F0F3021A751A7D92
:108D700002431A75704700BF003C0240024B58691D
:108D8000C0F34710704700BF003C0240014BD88A37
:108D900080B27047003C0240014B588B80B2704754
:108DA000003C0240014BD88A80B27047003C024030
:108DB000014B588B80B27047003C0240024B587DFB
:108DC000AA3818BF01207047003C0240024B187DB2
:108DD00000F00C00704700BF003C0240044A1369D9
:108DE00011B103431361704723EA00031361704715
:108DF000003C0240034BDB681840003818BF0120DC
:108E0000704700BF003C0240014BD860704700BF74
:108E1000003C02400E4BDA68D20310D4DA68D10667
:108E20000FD4DA68D2050ED4DA6812F0EF0F0CD145
:108E3000DB6813F0020F0CBF0920082070470120E7
:108E4000704706207047022070470720704700BF18
:108E5000003C024000B583B009238DF80730FFF7CE
:108E6000D9FF8DF807009DF80730012BF7D09DF84A
:108E7000070003B05DF804FB70B50546022994BFF6
:108E80000C024FF44074FFF7E5FF092800D070BDD5
:108E90000F4E336923F440733361336923433361E5
:108EA000336923F0F803336133692B4343F0020342
:108EB0003361336943F480333361FFF7CBFF3369A8
:108EC00023F002033361336923F0F8033361DEE7F3
:108ED000003C024038B50446FFF7BCFF022C94BFAB
:108EE00024024FF44074092800D038BD0D4D2B6981
:108EF00023F440732B612B6923432B612B6943F4CB
:108F0000004343F004032B612B6943F480332B614E
:108F1000FFF7A0FF2B6923F4004323F004032B6128
:108F2000E3E700BF003C024038B50446FFF792FF7C
:108F3000022C94BF24024FF44074092800D038BD9D
:108F40000B4D2B6923F440732B612B6923432B6159
:108F50002B6943F004032B612B6943F480332B61AD
:108F6000FFF778FF2B6923F004032B61E7E700BFCD
:108F7000003C024038B50446FFF76CFF022C94BF5A
:108F800024024FF44074092800D038BD0B4D2B69E2
:108F900023F440732B612B6923432B612B6943F42A
:108FA00000432B612B6943F480332B61FFF752FFA1
:108FB0002B6923F400432B61E7E700BF003C02402C
:108FC000F8B5064614461D46FFF744FF092800D0B1
:108FD000F8BD0B4F3B6923F440733B613B6943F49D
:108FE00040733B613B6943F001033B61C6E90045C7
:108FF000FFF730FF3B6923F001033B61E8E700BF67
:10900000003C024070B505460C46FFF723FF0928D7
:1090100000D070BD0A4E336923F440733361336965
:1090200043F400733361336943F0010333612C600F
:10903000FFF710FF336923F001033361E9E700BF55
:10904000003C024070B505460C46FFF703FF0928B7
:1090500000D070BD0A4E336923F440733361336925
:1090600043F480733361336943F0010333612C802F
:10907000FFF7F0FE336923F001033361E9E700BF36
:10908000003C024070B505460C46FFF7E3FE092898
:1090900000D070BD094E336923F4407333613369E6
:1090A0003361336943F0010333612C70FFF7D2FE63
:1090B000336923F001033361EBE700BF003C02405A
:1090C00038B505460C46FFF7C5FE092800D038BD67
:1090D00034B1074AD38A9BB223EA0503D382F6E769
:1090E000034BDA8A45EA020080B2D882EFE700BF7C
:1090F000003C024038B505460C46FFF7ABFE092898
:1091000000D038BD34B1074A538B9BB223EA050324
:109110005383F6E7034B5A8B45EA020080B258832B
:10912000EFE700BF003C024038B505460C46FFF7AC
:1091300091FE092800D038BD054AD38A1CB12B43C3
:109140009BB2D382F7E79BB223EA0503D382F2E70F
:10915000003C024038B505460C46FFF77BFE092867
:1091600000D038BD054A538B1CB12B439BB25383AF
:10917000F7E79BB223EA05035383F2E7003C024082
:1091800010B50446FFF766FE092804BF014B5C7565
:1091900010BD00BF003C0240F8B506460D4614461F
:1091A000FFF758FE092800D0F8BD064F3B7D03F0BD
:1091B0001F0346EA030044EA000245EA020139754A
:1091C000F2E700BF003C0240034A137D43F0020374
:1091D0001375FFF73FBE00BF003C02404FF0204335
:1091E00058B943F2DB021A60800000F120406FF0B2
:1091F00070434360C0F80431704743F2D20243F831
:109200002020F1E770B58468826A416BD0E9005391
:109210002343C6683343066933434669334386694B
:109220003343C6693343066A3343466A33431343C1
:10923000C66A3343066B33430B434FEA850C0CF18C
:10924000204CCCF80030082C1FD0B1F5801F23D063
:10925000816B0C690B6843EA04538C6923434C68A7
:1092600043EA04138C6843EA0423CC6843EA0443CA
:10927000496943EA0163CCF80430B2F5804F22D04B
:109280006FF07043CCF8043170BDDCF8003043F06F
:109290004003CCF80030D8E7002DD9D04FF0204360
:1092A0005D68196841F480111960196841F4807192
:1092B0001960816B0C6904F1FF3E25F4700545EAE5
:1092C0000E555D60C6E7C26B136891690B43516828
:1092D00043EA0113916843EA0123116943EA015308
:1092E000526943EA0263CCF80431CDE710B400239D
:1092F0000222C0E9003283601022C0E90323C36266
:10930000C0E90533C3614FF480514FF40052C0E906
:1093100008128362C0E90C33816B0F22C1E900227D
:10932000FF24C1E90242C1E904228B61C16BC1E99A
:109330000022C1E90242C1E904228B615DF8044BBD
:10934000704700BF4FF0204231B152F8203043F057
:10935000010342F82030704752F82010024B0B40B6
:1093600042F82030704700BFFEFF0F004FF020434F
:10937000182210280BD0C3F880204022C3F8842084
:109380004FF0FC32C3F88820C3F88C2070471A666F
:1093900040225A664FF0FC329A66DA66704700BF88
:1093A00030B4D0E901321343826943EA4233C268E0
:1093B000134302691343426943EA422343F008031B
:1093C000C469A2681104626841EA0221226811435B
:1093D000E26841EA0261046AA2681204656842EA2E
:1093E000052225682A43E46842EA046200681028DE
:1093F0004FF0204007D0C0F88030C0F88810C0F887
:109400008C2030BC704703668166C266F9E700BFF6
:1094100010220023C0E90023C0E90223C0E904337D
:109420008361C269FC23C2E90033C2E90233026AE4
:10943000C2E90033C2E90233704700BF4FF0204257
:1094400069B1102806D0D2F8803043F00403C2F886
:1094500080307047136E43F0040313667047102882
:1094600006D0D2F88010054B0B40C2F88030704710
:10947000116E024B0B401366704700BFFBFF0F00DD
:109480004FF0204269B1102806D0D2F8803043F066
:109490004003C2F880307047136E43F040031366F8
:1094A0007047102806D0D2F88010054B0B40C2F848
:1094B00080307047116E024B0B401366704700BF3F
:1094C000BFFF0F004FF0204310280CBF586FD3F898
:1094D000940070474FF020431822C3F8A0200022C8
:1094E000C3F8A4204FF0FC32C3F8A820C3F8AC2086
:1094F000C3F8B020704700BF10B4D0E901235B036C
:1095000043EA42230268134343F010034FF0204222
:10951000C2F8A030C1688B681B044C6843EA04237E
:109520000C682343C96843EA0163C2F8A8300169A3
:109530008B681B044C6843EA04230C682343C96806
:1095400043EA0163C2F8AC304169D1E901031B046D
:1095500043EA002308680343C96843EA0163C2F889
:10956000B0305DF8044B70470023C0E900338360DE
:10957000C268FC23C2E90033C2E902330269C2E9CE
:109580000033C2E902334269C2E90033C2E902335F
:10959000704700BF4FF0204230B1D2F8A03043F006
:1095A0000403C2F8A0307047D2F8A010024B0B4061
:1095B000C2F8A030704700BFFBFF0F00800000F131
:1095C00020404FF43472C0F840216FF07042C0F870
:1095D0004821034B00221A655A659A65704700BFFF
:1095E000000100A030B4D0E90715446AD0E9013287
:1095F0001343C268134302691343426913438269E8
:1096000013430B432B4323430268FAB921490B64EC
:10961000826A5368581E9368013B1B0243EA001399
:10962000106801380343D068013843EA00331069F9
:10963000013843EA00435069013843EA0053926914
:10964000013A43EA02638B6430BC704729432143EB
:10965000104C2164920002F1204202F5A071C2F880
:109660004031826A5368581E9368013B1B0243EAEB
:1096700000131068013803431069013843EA0043BE
:10968000D06801385269013A120542EA0032A264F8
:109690008B60D9E7000100A00022C0E900228260AF
:1096A00010234021C0E903314FF0800C4FF40071CA
:1096B000C0E905C1C0E907224262826AC2E90033FB
:1096C000C2E90233C2E9043393617047D0E9003242
:1096D0001343C26843EA42238268013A43EA4213D1
:1096E000014A1365704700BF000100A0054B18B97F
:1096F000986D00F006007047986D800800F0060035
:10970000704700BF000100A0024A536D43EA4003C6
:1097100053657047000100A0024A136D43EA4013ED
:1097200013657047000100A0800000F12040D0F8D0
:10973000403121B143F40073C0F84031704723F445
:1097400000735B045B0CC0F84031704712B3102803
:109750000AD0B0F5807F0DD0B0F5805F12D0214ADD
:10976000536D0B43536570474FF02042536E0B43CC
:10977000536670474FF02042D2F884300B43C2F852
:10978000843070474FF02042D2F8A4300B43C2F827
:10979000A430704710280BD0B0F5807F0FD0B0F503
:1097A000805F15D00F4A536D23EA0103536570475C
:1097B0004FF02042536E23EA0103536670474FF087
:1097C0002042D2F8843023EA0103C2F88430704783
:1097D0004FF02042D2F8A43023EA0103C2F8A430AB
:1097E000704700BF000100A0102810D0B0F5807FA6
:1097F00011D0B0F5805F07BF4FF02043D3F8A430FD
:10980000074B9B6D99430CBF0120002070474FF020
:1098100020435B6EF6E74FF02043D3F88430F1E746
:10982000000100A010280BD0B0F5807F0FD0B0F55C
:10983000805F15D00F4A536D23EA010353657047CB
:109840004FF02042536E23EA0103536670474FF0F6
:109850002042D2F8843023EA0103C2F884307047F2
:109860004FF02042D2F8A43023EA0103C2F8A4301A
:10987000704700BF000100A0102818D0B0F5807F0D
:1098800021D0B0F5805F25D010B4164A536D946D89
:1098900003EA0102012894BF04F0010003EAD100A9
:1098A00010B1101E18BF01205DF8044B70474FF037
:1098B00020435B6E03EA010203EAD10088B1101E67
:1098C00018BF012070474FF02043D3F8843003EADB
:1098D0000102F1E74FF02043D3F8A43003EA01027C
:1098E000EAE77047000100A010280BD0B0F5807F98
:1098F0000FD0B0F5805F15D00F4A536D43F00103D0
:10990000536570474FF02042536E23EAD1035366EC
:1099100070474FF02042D2F8843023EAD103C2F8D6
:10992000843070474FF02042D2F8A43023EAD103AC
:10993000C2F8A430704700BF000100A008B54B4B2F
:1099400098421ED04A4B984225D04A4B98422CD080
:10995000494B984233D0494B98423AD0484B9842B1
:1099600041D0484B984248D0474B98424FD0474B44
:10997000984256D0464B98425FD0464B984268D0AA
:1099800008BD0121084600F029FD00210120BDE8A5
:10999000084000F023BD0121022000F01FFD00213E
:1099A0000220BDE8084000F019BD0121042000F0AC
:1099B00015FD00210420BDE8084000F00FBD012185
:1099C000082000F00BFD00210820BDE8084000F051
:1099D00005BD0121102000F001FD00211020BDE88F
:1099E000084000F0FBBC0121202000F0F7FC002122
:1099F0002020BDE8084000F0F1BC0121402000F02B
:109A0000EDFC00214020BDE8084000F0E7BC01214A
:109A1000802000F0E3FC00218020BDE8084000F039
:109A2000DDBC01214FF4807000F0D8FC00214FF420
:109A30008070BDE8084000F0D1BC01214FF40070F7
:109A400000F0CCFC00214FF40070BDE8084000F0AD
:109A5000C5BC01214FF4806000F0C0FC00214FF430
:109A60008060BDE8084000F0B9BC00BF00000240C3
:109A70000004024000080240000C024000100240B6
:109A80000014024000180240001C02400020024066
:109A900000240240002802402DE9F0430D68002216
:109AA00013464FF0010E03260EE0C46806FA02F7D3
:109AB00024EA0704C460C768CC7994403C43C4607E
:109AC00001330232102B2BD00EFA03FC3CEA0504C2
:109AD000F6D1046806FA02F76FEA070824EA0704D9
:109AE0000460D0F800900C7904FA02F747EA0907FD
:109AF0000760013C012CD8D8846808EA040484601B
:109B000087684C7994403C438460446824EA0C04A0
:109B1000446047688C799C40A4B23C434460C4E7ED
:109B2000BDE8F0834FF6FF720023C0E900237047C1
:109B300082B04FF480330193019B0B430193019B4F
:109B4000C361C161019BC361C3690193C36901938F
:109B500002B0704700690840003818BF0120704704
:109B6000006980B2704700BF40690840003818BFE4
:109B700001207047406980B2704700BF0183704781
:109B8000418370470AB1018370474183704700BF2A
:109B900041617047436959404161704701F00703D3
:109BA0009B00C90800EB8100016A4FF00F0C0CFA12
:109BB00003FC21EA0C010162016A9A400A43026235
:109BC000704700BF08B5174B984206D0164B984215
:109BD0000FD0164B984218D008BD01214FF4001049
:109BE00000F020FC00214FF40010BDE8084000F018
:109BF00019BC01214FF4800000F014FC00214FF447
:109C00008000BDE8084000F00DBC01214FF40000C9
:109C100000F008FC00214FF40000BDE8084000F00F
:109C200001BC00BF0054004000580040005C0040F0
:109C300070B584B004460D46868826F03F0636048B
:109C4000360C684600F0D8FA02992F4AA2FB01327E
:109C5000930C46EA9246A680228822F00102120462
:109C6000120C22802A68294EB24223D8184652008C
:109C7000B1FBF2F292B2042A38BF042201302084F0
:109C8000A28323889BB243F001032380238823F41B
:109C9000816323F002031B041B0CAA8869890A4311
:109CA00013439BB22380AB892A8913439BB2238140
:109CB00004B070BDEE884BF6FF7086421ED002EBFA
:109CC000820202EB8202B1FBF2F189B241F48041DF
:109CD000C1F30B020AB941F0010141F4004203EB68
:109CE0008303C3EB03139B00094981FB0301DB17CB
:109CF000C3EBA11301339BB22384C1E702EB420201
:109D0000B1FBF2F291B2E3E783DE1B43A0860100D0
:109D1000D34D621041F28832044BC0E90023002386
:109D200083604FF480438381704700BF0000FFBF12
:109D3000038821B19BB243F001030380704723F0F5
:109D400001031B041B0C0380704700BF838C29B1E7
:109D500023F010031B041B0C838470479BB243F059
:109D600010038384704700BF838C9BB201F00F0106
:109D700023F00F0319438184704700BF038821B18A
:109D80009BB243F480730380704723F480731B04F9
:109D90001B0C0380704700BF038821B19BB243F4C2
:109DA00000730380704723F400731B041B0C0380B3
:109DB000704700BF1AB141F001010182704701F004
:109DC000FE01FAE7038821B19BB243F4806303806C
:109DD000704723F480631B041B0C0380704700BF93
:109DE000838923F0FE031B041B0C01F0FE010B43CF
:109DF00083817047838921B19BB243F00103838142
:109E0000704723F001031B041B0C8381704700BFC4
:109E1000038821B19BB243F040030380704723F0D5
:109E200040031B041B0C0380704700BF038831B143
:109E30006FEA43436FEA53439BB203807047C3F317
:109E40000E030380704700BF038821B99BB243F023
:109E500080030380704723F080031B041B0C0380E6
:109E6000704700BF838BB1F5804F05D023F480434A
:109E70001B041B0C838370479BB243F48043838392
:109E8000704700BF0388B1F5006F05D023F400636D
:109E90001B041B0C038070479BB243F400630380D8
:109EA000704700BF0388B1F5005F05D023F400536D
:109EB0001B041B0C038070479BB243F400530380C8
:109EC000704700BF038821B19BB243F010030380A9
:109ED000704723F010031B041B0C0380704700BF66
:109EE00001827047008AC0B2704700BF038821B169
:109EF0009BB243F480530380704723F480531B04C8
:109F00001B0C0380704700BF0388B1F5006F05D0BC
:109F100023F400631B041B0C038070479BB243F4C3
:109F200000630380704700BF038821B19BB243F0F8
:109F300020030380704723F020031B041B0C0380C5
:109F4000704700BF008BC0F307207047838821B1A2
:109F50009BB243F400638380704723F400631B04C7
:109F60001B0C8380704700BF838821B19BB243F4F0
:109F700080538380704723F480531B041B0C838021
:109F8000704700BF82B0002301930190019B1944E8
:109F90000191019B188880B202B0704783889BB200
:109FA00012B10B438380704723EA0103838070471B
:109FB000838A9BB2028B43EA02430B4023F07F4328
:109FC000581AB0FA80F04009704700BF838A9BB2EC
:109FD000028B43EA024020F07F40704782B00023AA
:109FE0000193009300900B0F019321F07F41019B9F
:109FF00053B1009B14330093009B1868084000384D
:10A0000018BF012002B07047090C009B1833009361
:10A01000F2E700BFC94389B28182704783889BB24F
:10A02000808A80B2084006D003EA114303F4E0635B
:10A03000181E18BF01207047C94389B2818270473A
:10A040000E4B1A6842F001021A60002199601A68EA
:10A0500022F0A85222F410221A60094A5A60094AD2
:10A06000C3F8842002F18062C3F888201A6822F4C1
:10A0700080221A60D960C3F88C1070470038024003
:10A080001030002400300020024B00229A7098709B
:10A09000704700BF00380240034A136823F0F803FA
:10A0A00043EAC0031360704700380240014B186058
:10A0B000704700BF00004742084B002283F8702021
:10A0C00083F87020012802D0042803D0704783F859
:10A0D00070007047052283F87020704700380240F6
:10A0E000014BC3F8800E70470000474210B4019C3A
:10A0F00040EA0460084340EA82105B08013B40EA02
:10A100000340024B58605DF8044B70470038024032
:10A11000014B1866704700BF00004742120742EA31
:10A12000016242EA8012024BC3F88420704700BFEC
:10A1300000380240014B9866704700BF000047425C
:10A14000120742EA016242EA8012024BC3F88820F9
:10A15000704700BF00380240014B1867704700BFCE
:10A1600000004742014BD864704700BF00004742DF
:10A17000034A936823F0EC630B43184390607047E5
:10A1800000380240034A936823F078430B43184396
:10A190009060704700380240034A936823F003033D
:10A1A00003439360704700BF00380240024B986839
:10A1B00000F00C00704700BF00380240034A93686B
:10A1C00023F0F00303439360704700BF0038024060
:10A1D000034A936823F4E05303439360704700BF3E
:10A1E00000380240034A936823F4604343EAC00303
:10A1F000936070470038024010B41E4A936803F021
:10A200000C03042B34D0082B19D01B4B0360194AC4
:10A210009468C4F3031419490C5DE34043609468E7
:10A22000C4F382240C5D23FA04F484609268C2F3C0
:10A2300042328A5CD340C3605DF8044B7047536878
:10A24000516801F03F0113F4800F5368C3F3881382
:10A2500014BF0B4A084AB2FBF1F202FB03F3054AB2
:10A260005268C2F3014201325200B3FBF2F3CDE770
:10A27000034BCBE7003802400024F4001812010819
:10A2800000127A0000F44073B3F5407F06D0094B0A
:10A290001A6FC0F30B0010431867704705498A68AE
:10A2A00022F4F81220F0704323F4407313438B60C0
:10A2B000EDE700BF00380240014BC3F83C0E704789
:10A2C00000004742014BC3F8400E70470000474270
:10A2D000014BC3F85C01704700004742044AD2F8C2
:10A2E0008C3023F01F0301381843C2F88C007047EC
:10A2F00000380240054AD2F88C3023F4F853013874
:10A3000043EA0023C2F88C30704700BF0038024097
:10A31000044AD2F88C3023F440130343C2F88C3043
:10A32000704700BF00380240044AD2F88C3023F452
:10A3300040030343C2F88C30704700BF003802402E
:10A34000044AD2F88C3023F440330343C2F88C30F3
:10A35000704700BF00380240014BC3F8E00170476E
:10A3600000104742044A136B11B103431363704753
:10A3700023EA00031363704700380240044A536B1A
:10A3800011B103435363704723EA000353637047DB
:10A3900000380240044A936B11B103439363704742
:10A3A00023EA00039363704700380240044A136CA9
:10A3B00011B103431364704723EA00031364704729
:10A3C00000380240044A536C11B103435364704790
:10A3D00023EA00035364704700380240044A1369BB
:10A3E00011B103431361704723EA000313617047FF
:10A3F00000380240044A536911B103435361704766
:10A4000023EA00035361704700380240044A93690D
:10A4100011B103439361704723EA000393617047CE
:10A4200000380240044A136A11B1034313627047B3
:10A4300023EA00031362704700380240044A536A5B
:10A4400011B103435362704723EA0003536270471C
:10A4500000380240044A136D11B10343136570477D
:10A4600023EA00031365704700380240044A536D25
:10A4700011B103435365704723EA000353657047E6
:10A4800000380240044A936D11B10343936570474D
:10A4900023EA00039365704700380240044A136EB4
:10A4A00011B103431366704723EA00031366704734
:10A4B00000380240044A536E11B10343536670479B
:10A4C00023EA00035366704700380240044A537B76
:10A4D00011B103435373704723EA0003537370476A
:10A4E000003802404309012B0BD0022B064B0CBF56
:10A4F0001B6F5B6F00F01F0023FA00F000F00100FB
:10A500007047014B1B68F5E70038024000B583B087
:10A51000002301933120FFF7E5FF019B01330193F5
:10A52000019BB3F5A04F01D00028F3D03120FFF7F5
:10A53000D9FF003818BF012003B05DF804FB00BF4D
:10A54000024A536F43F080735367704700380240EC
:10A55000034BDB681840003818BF0120704700BF6C
:10A5600000380240014B9873704700BF003802402A
:10A5700008B52D4B98420FD02C4B984218D02C4B3D
:10A58000984221D02B4B98422AD02B4B984233D063
:10A590002A4B98423CD008BD01214FF48050FFF770
:10A5A0004DFF00214FF48050BDE80840FFF746BF43
:10A5B00001214FF48040FFF735FF00214FF4804028
:10A5C000BDE80840FFF72EBF01214FF40040FFF720
:10A5D00029FF00214FF40040BDE80840FFF722BFEB
:10A5E00001214FF40050FFF729FF00214FF40050E4
:10A5F000BDE80840FFF722BF01214FF48010FFF7AC
:10A600001DFF00214FF48010BDE80840FFF716BF82
:10A6100001214FF40010FFF711FF00214FF400104B
:10A62000BDE80840FFF70ABF003001400038004095
:10A63000003C004000340140005001400054014003
:10A64000038803F441520B88B1F802C043EA0C03BB
:10A65000B1F804C043EA0C03B1F806C043EA0C03A6
:10A66000B1F808C043EA0C03B1F80AC043EA0C038E
:10A67000B1F80CC043EA0C03B1F80EC043EA0C0376
:10A6800013439BB20380838B23F400631B041B0CD6
:10A6900083830B8A03827047F0B5838B23F47B633B
:10A6A00023F00F031B041B0C838302230384828B80
:10A6B00092B28C68B1F804C09C424ED0BCF1000F3D
:10A6C0000CBF01260226264B9D682D0203D59D68EE
:10A6D00025F400059D60224BD3F88470D3F8845094
:10A6E0005B6803F03F0E1F4BB3FBFEF3C7F3881EFE
:10A6F0000EFB03F3C5F3027EB3FBFEF3B1F806E0F5
:10A70000BEF5007F0EBF1B0A7601B3FBF6F303EB29
:10A7100083035B00B3FBF4F305339BB2124CA4FB41
:10A720000343C3F3C0041B099D1EFD2D94BF43EAE0
:10A73000042402244EEA040EA0F820E00B884C8882
:10A7400023434CEA030C8B894CEA030C42EA0C02CB
:10A7500092B242F400628283F0BDB1F806E0E9E70C
:10A760000038024000127A00CDCCCCCC002303602C
:10A7700043608360C3600723038270470023C0E9FE
:10A780000033022282608381704700BF038821B1B9
:10A790009BB243F040030380704723F040031B0447
:10A7A0001B0C0380704700BF838B21B19BB243F425
:10A7B00080638383704723F480631B041B0C8383B3
:10A7C000704700BF038823F400631B041B0C038045
:10A7D00003889BB20B430380704700BF0388B1F529
:10A7E000804F05D023F480431B041B0C038070476B
:10A7F0009BB243F480430380704700BF4FF6FF6372
:10A800009942038804D09BB243F48073038070475D
:10A8100023F480731B041B0C03807047838821B1D1
:10A820009BB243F004038380704723F004031B04AE
:10A830001B0C8380704700BF838821B19BB243F01B
:10A8400010038380704723F010031B041B0C8380CC
:10A85000704700BF00B5838B23F47B6323F00F03A5
:10A860001B041B0C838302230384838B9AB20B8803
:10A87000B3F5007F1DBFB3FA83F35B091B024FF4EE
:10A880008073B1F802C0B1F804E04CEA0E0C43EA60
:10A890000C0389890B4313439BB243F40063838306
:10A8A0005DF804FB808980B2704700BF81817047EA
:10A8B000038821B19BB243F400530380704723F413
:10A8C00000531B041B0C0380704700BF03889BB21E
:10A8D00043F4805303807047012914BF008B808AA2
:10A8E00080B27047008A80B2704700BF83889BB2F5
:10A8F00012B10B438380704723EA010383807047C2
:10A90000090901238B409BB222B1828892B2134382
:10A9100083807047828892B222EA03038380704763
:10A92000038901EA0300003818BF0120704700BF07
:10A93000C94389B20181704783889AB2008980B285
:10A9400001F00F034FF0010C0CFA03F3184007D08D
:10A9500009090CFA01FC02EA0C03181E18BF0120B9
:10A96000704700BF01F00F0101238B40DB439BB216
:10A970000381704708B501214FF48040FFF75EFD69
:10A9800000214FF48040BDE80840FFF757BD00BFED
:10A99000014B1860704700BF00380140014B18623E
:10A9A000704700BF0000274201F003039B0001F045
:10A9B000FC0101F1804101F59C318A684FF00F0CD8
:10A9C0000CFA03FC22EA0C028A608A689840104361
:10A9D00088607047014BC3F8DC00704700002742D5
:10A9E000014BC3F80004704700002742024B186A6D
:10A9F000C0F30020704700BF0038014000B5B0F838
:10AA000020C02CF0010C4FEA0C4C4FEA1C4CA0F873
:10AA100020C0B0F818C0B0F820E01FFA8EFE2CF06D
:10AA2000F30C4FEA0C4C4FEA1C4C42EA03124CEA7E
:10AA3000020C1FFA8CFC2EF00A0E41EA0E0141F0C6
:10AA40000101A0F818C001845DF804FB00B5B0F85E
:10AA500020C02CF0100C4FEA0C4C4FEA1C4CA0F814
:10AA600020C0B0F818E0B0F820C01FFA8CFC2EF41B
:10AA7000407E4FEA0E5E4FEA1E5E120242EA033249
:10AA80004EEA020E1FFA8EFE2CF0A00C4CEA011CBE
:10AA90001FFA8CFC4CF0100CA0F818E0A0F820C0B5
:10AAA0005DF804FB08B5604B984229D0B0F1804FA7
:10AAB00030D05E4B984237D05D4B98423ED05D4BD4
:10AAC000984245D05C4B98424CD05C4B984253D056
:10AAD0005B4B98425AD05B4B984261D05A4B98429C
:10AAE0006AD05A4B984273D0594B98427CD0594BFC
:10AAF000984200F08380584B984200F0898008BD4E
:10AB000001210846FFF79AFC00210120BDE808401A
:10AB1000FFF794BC01210846FFF784FC00210120C7
:10AB2000BDE80840FFF77EBC01210220FFF77AFC58
:10AB300000210220BDE80840FFF774BC0121042079
:10AB4000FFF770FC00210420BDE80840FFF76ABC55
:10AB500001210820FFF766FC00210820BDE808401D
:10AB6000FFF760BC01211020FFF75CFC00211020E2
:10AB7000BDE80840FFF756BC01212020FFF752FC3A
:10AB800000212020BDE80840FFF74CBC0121022035
:10AB9000FFF754FC00210220BDE80840FFF74EBC3F
:10ABA00001214FF48030FFF749FC00214FF4803041
:10ABB000BDE80840FFF742BC01214FF40030FFF729
:10ABC0003DFC00214FF40030BDE80840FFF736BCE3
:10ABD00001214FF48020FFF731FC00214FF4802049
:10ABE000BDE80840FFF72ABC01214020FFF71AFC0E
:10ABF00000214020BDE80840FFF714BC012180205F
:10AC0000FFF710FC00218020BDE80840FFF70ABCD8
:10AC100001214FF48070FFF705FC00214FF4807094
:10AC2000BDE80840FFF7FEBB000001400004004003
:10AC300000080040000C00400010004000140040DC
:10AC40000004014000400140004401400048014030
:10AC500000180040001C00400020004003889BB208
:10AC6000234A904218D0234A90423CD0B0F1804F02
:10AC700027D0A2F58032904223D002F58062904224
:10AC80001FD002F58062904216D01B4A904222D01B
:10AC90001A4A90421FD019E023F070034A881343E8
:10ACA00023F440730A89134303804B68C3620B8803
:10ACB00003858B7A038613E023F070034A881343DD
:10ACC00004E023F070039BB24A88134323F44073DB
:10ACD0009BB20A89134303804B68C3620B880385C8
:10ACE00001238382704723F070039BB2D6E700BF35
:10ACF000000001400004014000100040001400402A
:10AD00004FF0FF3343600023038103608372704779
:10AD100001858282704700BF038823F070031B0403
:10AD20001B0C0B430380704741627047C162704740
:10AD3000406A7047008D80B2704700BF038821B120
:10AD40009BB243F002030380704723F002031B040D
:10AD50001B0C0380704700BF038821B19BB243F0F6
:10AD600004030380704723F004031B041B0C0380BF
:10AD7000704700BF038821B19BB243F0800303807A
:10AD8000704723F080031B041B0C0380704700BF37
:10AD9000038823F008031B041B0C038003889BB269
:10ADA0000B430380704700BF038823F440731B04E8
:10ADB0001B0C038003889BB20B430380704700BFCA
:10ADC000038821B19BB243F001030380704723F055
:10ADD00001031B041B0C0380704700BF10B5038CDC
:10ADE00023F001031B041B0C0384038CB0F804C084
:10ADF0001FFA8CFC028B22F073021204120C0C88D6
:10AE0000224323F002031B041B0CB1F80CE04C8816
:10AE10004EEA040E43EA0E039BB2104CA04203D04C
:10AE200004F58064A04212D123F00803CC892343A7
:10AE300023F004038C8823432CF4407CB1F810E009
:10AE40004C8A4EEA040E4CEA0E0C1FFA8CFCA0F859
:10AE500004C002838A684263038410BD000001407D
:10AE600010B5038C23F010031B041B0C0384038C0C
:10AE7000B0F804C01FFA8CFC028B22F4E6421204E4
:10AE8000120C0C8842EA042292B223F020031B0425
:10AE90001B0CB1F80CE04C884EEA040E43EA0E138A
:10AEA0009BB2134CA04203D004F58064A04218D199
:10AEB00023F08003CC8943EA04134FF6BF7E03EAF4
:10AEC0000E0E8B884EEA031E1FFA8EF32CF4406C94
:10AED000B1F810E04C8A4EEA040E4CEA8E0C1FFAD0
:10AEE0008CFCA0F804C002838A688263038410BDCE
:10AEF0000000014010B5038C23F480731B041B0C6D
:10AF00000384038CB0F804C01FFA8CFC828B22F0FF
:10AF100073021204120C0C88224323F400731B04E6
:10AF20001B0CB1F80CE04C884EEA040E43EA0E23E9
:10AF30009BB2134CA04203D004F58064A04218D108
:10AF400023F40063CC8943EA04234FF6FF3E03EA6F
:10AF50000E0E8B884EEA032E1FFA8EF32CF4405C03
:10AF6000B1F810E04C8A4EEA040E4CEA0E1C1FFAAF
:10AF70008CFCA0F804C082838A68C263038410BD7D
:10AF80000000014010B5038C23F480531B041B0CFC
:10AF90000384038CB0F804C01FFA8CFC828B22F46B
:10AFA000E6421204120C0C8842EA042292B223F404
:10AFB00000531B041B0CB1F80CE04C884EEA040E45
:10AFC00043EA0E339BB20A4CA04203D004F58064DE
:10AFD000A04206D12CF4804C0C8A4CEA841C1FFA47
:10AFE0008CFCA0F804C082838A680264038410BDCC
:10AFF00000000140002303608380C0E90233036145
:10B00000704700BF00B500F1180E038C9BB24FF0E3
:10B01000010C0CFA01FC23EA0C03038421F0080361
:10B020007BB9490851F80E3023F070031B041B0C48
:10B0300041F80E3051F80E30134341F80E305DF8F0
:10B0400004FB0439C1F34E0151F80E3023F4E04300
:10B050001B041B0C41F80E3051F80E30120292B254
:10B060001A4341F80E20EAE7416370478163704755
:10B07000C163704701647047038B23F070031B04A6
:10B080001B0C0B4303837047038B23F4E0431B0427
:10B090001B0C43EA01239BB203837047838B23F08D
:10B0A00070031B041B0C0B4383837047838B23F4B7
:10B0B000E0431B041B0C43EA01239BB283837047CC
:10B0C000038B23F008031B041B0C0B430383704703
:10B0D000038B23F400631B041B0C43EA01239BB284
:10B0E00003837047838B23F008031B041B0C0B4363
:10B0F00083837047838B23F400631B041B0C43EA98
:10B1000001239BB283837047038B23F004031B044A
:10B110001B0C0B4303837047038B23F480631B04D6
:10B120001B0C43EA01239BB203837047838B23F0FC
:10B1300004031B041B0C0B4383837047838B23F492
:10B1400080631B041B0C43EA01239BB2838370477B
:10B15000038B23F080031B041B0C0B4303837047FA
:10B16000038BC3F30E0343EA01239BB203837047AF
:10B17000838B23F080031B041B0C0B4383837047DA
:10B18000838BC3F30E0343EA01239BB2838370478F
:10B19000038C23F002031B041B0C0B430384704736
:10B1A000038C23F008031B041B0C0B430384704720
:10B1B000038C23F020031B041B0C43EA01139BB2F6
:10B1C00003847047038C23F080031B041B0C43EAA9
:10B1D00001139BB203847047038C23F400731B0498
:10B1E0001B0C43EA01239BB203847047038C23F4B6
:10B1F00000631B041B0C43EA01239BB203847047CA
:10B20000038C23F400531B041B0C43EA01339BB251
:10B2100003847047038C9BB24FF0010C0CFA01FCC5
:10B2200023EA0C030384038C8A401A4392B20284FB
:10B23000704700BF038C9BB24FF0040C0CFA01FC6A
:10B2400023EA0C030384038C8A401A4392B20284DB
:10B25000704700BF002303600122426003817047F2
:10B26000406B7047806B7047C06B7047006C7047D5
:10B27000038B23F00C031B041B0C0383038B9BB277
:10B280000B430383704700BF038B23F440631B040D
:10B290001B0C0383038B9BB243EA01239BB2038302
:10B2A000704700BF2DE9F04105460C464988B1FAC8
:10B2B00081F35B095E00A288012A14BF01270227DF
:10B2C0002388B4F808809BB94346FFF797FBE488CE
:10B2D00021462846FFF7CCFF43463A4631462846EA
:10B2E000FFF7B4FB21462846BDE8F041FFF7CCBF8D
:10B2F0004346FFF7ABFBE48821462846FFF7C4FF2F
:10B3000043463A4631462846FFF778FB2146284611
:10B31000BDE8F041FFF7ACBF838B23F00C031B04A7
:10B320001B0C8383838B9BB20B438383704700BFCB
:10B33000838B23F440631B041B0C8383838B9BB29E
:10B3400043EA01239BB28383704700BF38B50546AB
:10B350000C460B884BB3042B32D0B1F802C0082B3B
:10B3600039D0B1F804E00989038C23F480531B041D
:10B370001B0C0384828B038C22F440721205120D85
:10B38000090341EA0E210A4392B223F400535B04FD
:10B390005B0C43EA0C339BB243F4805382830384F7
:10B3A000E188BDE83840FFF7C3BF0B898A88498828
:10B3B000FFF724FBE1882846BDE83840FFF758BF77
:10B3C0000B898A884988FFF741FBE1882846BDE858
:10B3D0003840FFF759BF8A88B1F808E0038C23F49E
:10B3E00080731B041B0C0384818B89B2038C9BB27A
:10B3F00021F0F3010A4342EA0E1292B223F42063D1
:10B4000043EA0C239BB243F4807382830384E18874
:10B41000BDE83840FFF780BF0B884A8813438A880D
:10B420001343CA8813430A8913434A8913438A89F9
:10B4300013439BB2A0F84430704700BF0023036061
:10B440004360836083817047B0F8443039B16FEA5C
:10B4500043436FEA53439BB2A0F844307047C3F3B1
:10B460000E03A0F844307047838821B19BB243F0AB
:10B4700004038380704723F004031B041B0C8380A8
:10B48000704700BF838821B19BB243F001038380E2
:10B49000704723F001031B041B0C8380704700BF1F
:10B4A00083899BB212B10B438381704723EA010366
:10B4B0008381704781827047038A01EA0300003864
:10B4C00018BF0120704700BFC94389B2018270478D
:10B4D000038A828992B211EA030003D00A40101E47
:10B4E00018BF0120704700BFC94389B2018270476D
:10B4F0001143A0F84810704783899BB212B10B43E7
:10B500008381704723EA010383817047838821B1D7
:10B510009BB243F008038380704723F008031B04A9
:10B520001B0C8380704700BF038923F007031B04B3
:10B530001B0C0381704700BF038923F070031B04B9
:10B540001B0C1943018103899BB243F0070303815C
:10B55000704700BF38B504460D4611460122602DE4
:10B560000ED0FFF74BFA238923F070031B041B0C4A
:10B570001D43258123899BB243F00703238138BDF6
:10B58000FFF764FAEFE700BF038923F070031B04A1
:10B590001B0C0B4303817047838823F070031B044B
:10B5A0001B0C838083889BB20B438380704700BF52
:10B5B000038923F007031B041B0C038103899BB23F
:10B5C0000B430381704700BF038923F080031B04F2
:10B5D0001B0C038103899BB20B430381704700BF9F
:10B5E000B0F808C05FFA8CFC0A4342EA03224CEA36
:10B5F000020C1FFA8CFCA0F808C0704710B5044676
:10B60000FFF7EEFF238923F070031B041B0C43F0AC
:10B610007703238110BD00BF10B50446FFF7E0FF9C
:10B6200023899BB243F48043238110BD10B5048964
:10B63000B0F818C0B0F820E024F007042404240C6B
:10B640000C432CF4407C2CF0030C4FEA0C4C4FEADA
:10B650001C4C4CF4807C4CF0010C2EF0220E4FEA76
:10B660000E4E4FEA1E4E42EA03124EEA020E1FFA37
:10B670008EFE0481A0F818C0A0F820E010BD00BF25
:10B68000838821B19BB243F080038380704723F00D
:10B6900080031B041B0C8380704700BFA0F8501070
:10B6A000704700BF50D30108000000203000002088
:10B6B000300000201006002082B03E4AD2F88830C8
:10B6C00043F47003C2F888303B4A136843F0010327
:10B6D000136000219160136823F0847323F4803396
:10B6E0001360364B5360136823F480231360D160DA
:10B6F00000910191136843F480331360136803F4DD
:10B7000000330193009B01330093019B1BB9009B05
:10B71000B3F5A04FF2D1284B1B6813F4003318BFC8
:10B7200001230193019B012B14D0234A936823F436
:10B7300000039360224BC2F88430136843F08063A7
:10B74000136013681B01FCD51A4B4FF000629A601E
:10B7500002B07047184B1A6C42F080521A641949B3
:10B760000A6842F440420A609A689A609A6842F411
:10B7700000429A609A6842F4A0529A60124A5A6053
:10B780001A6842F080721A601A689201FCD50F4A5A
:10B7900040F2056111609A6822F003029A609A688B
:10B7A00042F002029A60044A936803F00C03082BEB
:10B7B000FAD1BAE700ED00E0003802401030002472
:10B7C000C04900600070004008544007003C02403F
:10B7D000164A936803F00C03042B25D0082B0AD0DB
:10B7E000134B124A9268C2F3031212498A5CD34087
:10B7F000114A136070475368516801F03F0113F418
:10B80000800F5368C3F3881314BF0C4A084AB2FB75
:10B81000F1F202FB03F3054A5268C2F3014201321E
:10B820005200B3FBF2F3DCE7044BDAE700380240E6
:10B830000024F400281201080000002000127A0001
:10B840002DE9F04182B0002401944FF050461A4D8A
:10B850004FF40047B846A5F8188020210120FDF7D5
:10B86000C3FF0028F9D16F8326F8024B0134B6F1EB
:10B87000524FF0D104464FF05045104E0427B846C1
:10B8800004E002350134B5F1524F10D0A6F818800B
:10B8900020210120FDF7A8FF0028F9D177832A880D
:10B8A000A3B29A42EDD0019B01330193E9E70198DD
:10B8B00002B0BDE8F08100BF00000240000C024071
:10B8C0002DE9804883B0002301932E4C4FF400678C
:10B8D00067834FF4805BA4F81AB003F1804303F54B
:10B8E000043310265E834FF4004AA4F81AA0264DB4
:10B8F0004FF00409A5F81A906E834FF48068A4F8FD
:10B900001A80FFF79DFF01902783A4F818B01F4B02
:10B910001E83A4F818A0A5F818902E83A4F8188008
:10B92000019BDE0748BF6783019B9D0703D5154B2D
:10B930004FF480525A83019B5C0702D5134B1022AF
:10B940005A83019B180703D50E4B4FF400425A83CC
:10B95000019BD90602D50C4B10225A83019B9A06F3
:10B9600003D5084B4FF480625A83019B5B0602D5D6
:10B97000054B04225A83019B7F2BFCD9322002F015
:10B98000BDFCF8E700000240000C0240001002403D
:10B9900008B500210D48FCF7C7FC00210B48FCF757
:10B9A00083FD00210948FCF789FD00210848FDF7C7
:10B9B00003F800214FF48070FEF704FD00214FF4DE
:10B9C0008000BDE80840FEF7CDBC00BF002001406C
:10B9D0007064024008B500210D48FCF7A5FC002169
:10B9E0000B48FCF761FD00210948FCF767FD0021C9
:10B9F0000848FCF7E1FF00214FF48060FEF7E2FC0D
:10BA000000214FF48000BDE80840FEF7ABBC00BF4A
:10BA1000002201401064024070B59CB005460E46FD
:10BA200001214FF48000FEF79DFC01214FF480704E
:10BA3000FEF7C8FC00244B4BCDE90D43CDE90F5474
:10BA4000CDE911644FF480624FF40063CDE9132314
:10BA50004FF400514FF48073CDE915134FF4803348
:10BA6000CDE917340125CDE919541B940DA93E48A1
:10BA7000FCF764FF29463C48FCF79EFF09944FF40D
:10BA80004033CDE90A344FF470630C9309A8FCF7F6
:10BA90002FFC039440F20113ADF81030CDE90544BA
:10BAA00007948DF8206003A93048FCF7EFFB294686
:10BAB0000720FEF757FC03268DF808608DF80B4031
:10BAC000C023019301A92A48FDF7E6FF019601A9C9
:10BAD0002848FDF7E1FF1E23019301A92648FDF741
:10BAE000DBFF06232A4619462048FCF755FC0623AF
:10BAF000022207211D48FCF74FFC0623324608218D
:10BB00001A48FCF749FC0623042209211748FCF7D0
:10BB100043FC062305220B211448FCF73DFC0623B9
:10BB20001A460C211148FCF737FC062307220E2188
:10BB30000E48FCF731FC062308220D210B48FCF7C8
:10BB40002BFC29460948FCF7B9FC29460748FCF7B5
:10BB5000ABFC29460548FCF7E7FB0448FCF76AFC08
:10BB60001CB070BD4C2001407064024000200140B8
:10BB700000000240000402400008024070B59CB082
:10BB800004460E4601214FF48000FEF7EBFB012135
:10BB90004FF48060FEF716FC4FF08062424BCDE917
:10BBA0000D230F940024CDE9104612944FF48061C8
:10BBB0004FF40063CDE913134FF400504FF480733A
:10BBC000CDE91503CDE917440125CDE919541B949E
:10BBD0000DA93648FCF7B2FE29463448FCF7ECFEC6
:10BBE00009944FF44033CDE90A344FF470630C9359
:10BBF00009A8FCF77DFB039440F20113ADF8103067
:10BC0000CDE9054407948DF8206003A92848FCF786
:10BC10003DFB29462120FEF7A5FB03268DF8086091
:10BC20008DF80B400824019401A92248FDF734FF48
:10BC30004FF4F863019301A91F48FDF72DFF062378
:10BC40002A4605211A48FCF7A7FB062302221946BB
:10BC50001748FCF7A1FB0623324631461448FCF78F
:10BC60009BFB0623042211461148FCF795FB062393
:10BC7000052207210E48FCF78FFB06231A462146B2
:10BC80000B48FCF789FB29460948FCF717FC2946B5
:10BC90000748FCF709FC29460548FCF745FB044822
:10BCA000FCF7C8FB1CB070BD4C2201401064024080
:10BCB0000022014000000240001402400A4B53F8E9
:10BCC0002030B3F17F4F0DD203F180711A1D9142E4
:10BCD0004FF0000205D9C3E9002208339942FAD196
:10BCE00070471A60704700BF801201082DE9F84FB5
:10BCF000DDF828909DF82CA0002B36D0884600EB6C
:10BD0000810550F82100144602EB83070026DFF876
:10BD100064B009E002F058FD2860814508BF46F094
:10BD200001060434A74221D000F14053B3F1007F53
:10BD300094BF20F001004FF05040286020210120E6
:10BD4000FDF752FD0028F9D19BF80030022B2B683B
:10BD50000CBFB3F900301B68236041462868BAF174
:10BD6000000FD7D002F058FDD6E71E463046BDE89A
:10BD7000F88F00BF1C0000202DE9F8439DF82080BB
:10BD8000002B32D00F4600EB8104154602EB8306F0
:10BD9000DFF85C9009E020682B6803801EE002F069
:10BDA00013FD20600435B5421FD0236803F14052D3
:10BDB000B2F1007F94BF23F001034FF050432360A2
:10BDC00020210120FDF710FD0028F9D199F800305D
:10BDD000022BE0D02A6823681A6020683946B8F13F
:10BDE000000FDCD002F018FDDBE7BDE8F88300BFF0
:10BDF0001C0000202DE9F8432DED028B9DF82890C2
:10BE0000002B53D08846F0EE408A00EB81041546A3
:10BE100002EB8307274E09E0206818EE103A0380F2
:10BE20003DE002F0D1FC2060AF423FD02021012054
:10BE3000FDF7DAFC0028F9D1236803F14052B2F192
:10BE4000007F99BF23F001031A464FF0504213467A
:10BE500023603378022B06BFB2F9003007EE903A28
:10BE6000D2ED007AB5EC017AB8EEC77AF8EEE77A4F
:10BE7000F7EE006A76EEE86A67EEA67AE7EE287AD1
:10BE8000BDEEE78A20210120FDF7AEFC0028F9D1A4
:10BE90003378022BC0D0236883ED008A20684146A6
:10BEA000B9F1000FBDD002F0B7FCBCE7BDEC028BCE
:10BEB000BDE8F8831C00002010B584B001210420E7
:10BEC000FEF774FA1E4B00936846FCF77BF901A855
:10BED000FEF716FF40F6B83302930024ADF80C408D
:10BEE000019401A91748FEF7B9FE01221146154831
:10BEF000FFF7D6FA01211348FEF762FF01214FF444
:10BF00000030FEF75FFA104B00936846FCF75AF9D1
:10BF100001A8FEF7F5FE41F288330293ADF80C401C
:10BF2000019401A90948FEF799FE0122114607482C
:10BF3000FFF7B6FA01210548FEF742FF04B010BD35
:10BF40001E030001000800401900010100440140E7
:10BF50002DE9F04101219A48FFF7BAFA002800F0D4
:10BF60002D81984D2B6959070CD4974A11884EF2B0
:10BF7000010343EA4103138001219148BDE8F041E8
:10BF8000FFF7B2BA904C23886FEA03536FEAD343AA
:10BF90009BB223804FF6FE729342EDD10026A6702D
:10BFA000E6708A4B1F6804F0EFFEDFF8348298F8E1
:10BFB0000930012B37D9062B27D008232B8304F017
:10BFC000E9FE10232B8304F0D9FE814B5A7A0AB97B
:10BFD000012222735B7D0BB90123637398F809304A
:10BFE000092B1CD84FF42472DA40D2071BD55A1EF5
:10BFF000082A50D8DFE812F01B00DF00AE009900DD
:10C00000CF004F005C00B5007A00A680A660714D9D
:10C010002B689F4238D82A68D21B052337E00023BB
:10C02000A380A360A8E70022A280A260DFE7694D99
:10C03000D5ED007AF8EE677A07EE107AB8EE477A17
:10C04000C7EE276ADFED647AF4EEE76AF1EE10FAE4
:10C0500006DCDFED627AF4EEE76AF1EE10FA8BD5DA
:10C06000584E0823338304F095FE1023338304F0E5
:10C0700085FE574B5A7A0AB9012222735B7D0BB9B0
:10C08000012363732F6077E72A68BA1A0523934266
:10C09000BFF472AFE4E74F4D2A68BA422A6805D26E
:10C0A000BA1A062B0CBF05230A23F0E7D21BF8E7C8
:10C0B000A28804EB42031F82A36873B1238A618ABA
:10C0C0000B44A18A0B44E18A0B449B1041490B604D
:10C0D000032A06D80132A2804EE7BFB23D4B1F6053
:10C0E000F6E70023A3800123A36045E7A38804EBC0
:10C0F0004302178201339BB2072B01D8A3803BE791
:10C100000023A380238A628A1344A28A1344E28A0A
:10C110001344228B1344628B1344A28B1344E28B8F
:10C120001344DB102B4A136026E7A38804EB430279
:10C13000178201339BB2032BE0D90023A380238A0B
:10C14000628A1344A28A1344E28A13449B10214A50
:10C15000136011E7238C3B445B081E4A136027845D
:10C160000AE71C4BD3ED007A07EE107AF8EE476A27
:10C17000F8EE677AB6EE087A67EE877AB5EE007A5F
:10C18000E6EE877AFCEEE77AC3ED007A1A6822F0D1
:10C1900007021A60F0E60F4BD3ED007A07EE107A33
:10C1A000F8EE476AF8EE677AB6EE0C7A67EE877AB1
:10C1B000B4EE007AE4E7074B1F60DDE6BDE8F081EE
:10C1C0000044014000100240300000200006002022
:10C1D0003804002088030020AE47813FA4707D3FD3
:10C1E000500400202DE9F84301219B48FFF77CF91A
:10C1F0009A4B1A69920640F1BD80994C22884EF202
:10C20000010343EA42032380964D974B1B699E042A
:10C2100000F1A88162884EF2010343EA4203638081
:10C22000924B1B69980500F1CB81A2884EF2010365
:10C2300043EA4203A3808E4B1B69590640F1EE810D
:10C2400023896FEA03536FEAD3439BB223814FF6EE
:10C25000F872934202D1012385F83930854B1B696E
:10C260001A0640F1ED81E3886FEA03536FEAD34386
:10C270009BB2E3804FF6F872934202D1012385F816
:10C2800038307B4B1B695B0500F1EC8162894EF213
:10C29000010343EA42036381744B1B699F0700F16A
:10C2A0000F82A2894EF2010343EA4203A381714B3C
:10C2B0001B691E0740F14682238A6FEA03536FEA27
:10C2C000D3439BB223824FF6F872934202D10123EB
:10C2D00085F84530674B1B69180540F14582E389B5
:10C2E0006FEA03536FEAD3439BB2E3814FF6F872D0
:10C2F000934202D1012385F84430584B1B699906BB
:10C3000040F144825A4B1B695A0500F13F82564B5B
:10C310001C6914F4005440F03982544E33699B0771
:10C3200040F1348233699F0540F13082AB6C5A1C76
:10C33000AA644DF2F022934240F22A82012385F84A
:10C340002C3085F828304FF40049A6F81890494B56
:10C350004FF01008A3F818804FF400673783204689
:10C36000FFF7ACFCAC64A6F81A90424BA3F81A8015
:10C3700077830DE210221A83394C23886FEA035326
:10C380006FEAD3439BB22380B3F57F4F40F0BC806C
:10C39000354B1B699B0418D5344B1A69970514D586
:10C3A000334A1269560510D41B699D070DD42D4DD3
:10C3B0004FF4C0636B62304A137BB3FA83F35B09BB
:10C3C000137340F201132B851FE7294B1B69580596
:10C3D0000FD4254B1B6999040BD5244B1A69920580
:10C3E00007D51B699F0704D51E4D012385F828300A
:10C3F0000BE71E4B1A6996070FD41B4A1269950466
:10C400000BD51B69980508D5194B1B69590504D52F
:10C41000144D012385F82930F7E6134B186910F401
:10C42000005035D1A3F500631A69920530D5104A42
:10C43000126957052CD51B699E0729D50F4B5A7ACF
:10C4400012BB0F4A11680F4A116001225A72054D42
:10C45000012385F82C30D8E6000800400010024087
:10C4600004000020300000200008024000000240CC
:10C4700000180240000C0240500400203804002044
:10C480008803002080030020587202F00DFADEE7D6
:10C490009A4A136913F400731DD1994909698D04EF
:10C4A00019D598490969480515D51269910712D51A
:10C4B000954A517D51B9954B1968954B59600123A7
:10C4C0005375944D012385F82D309EE65375012058
:10C4D00002F0EAF9F5E7894B1A69920510D4884A07
:10C4E000126997040CD4874A1269560508D41B694F
:10C4F0009D0705D4874D40F201132B85AB8584E65B
:10C500007E4B1A69900501D4824D7EE67C4A126901
:10C510009104F9D57B4A12695205F5D51B697D4D09
:10C520009F077FF572AE0027EF707B4E336823F0D4
:10C530000703764A1360794B08221A8304F02AFC19
:10C540001022764B1A8304F019FC37606E4B5A7A2E
:10C550000AB901222A735B7D002B7FF456AE0123BA
:10C560006B7352E663886FEA03536FEAD3439BB25F
:10C570006380B3F5704F7FF453AE95F830301BB144
:10C58000002385F830304BE695F8342012B185F859
:10C59000343045E695F8323013B185F832203FE665
:10C5A00095F8362012B185F8363039E695F82C30FA
:10C5B00013B185F82C2033E6012385F838302FE6B7
:10C5C000A3886FEA03536FEAD3439BB2A380B3F50A
:10C5D000704F7FF430AE95F831301BB1002385F8F1
:10C5E000313028E695F8352012B185F8353022E64D
:10C5F00095F8333013B185F833201CE695F83720D1
:10C6000012B185F8373016E695F82D3013B185F85C
:10C610002D2010E6012385F839300CE622894EF2F0
:10C62000010343EA42039BB223814EF20702934285
:10C630007FF414AE3A4B1B7A002B7FF40FAE0AE660
:10C64000E2884EF2010343EA42039BB2E3804EF2DA
:10C65000070293427FF415AE314B1B7A002B7FF417
:10C6600010AE0BE663896FEA03536FEAD3439BB2C4
:10C670006381B3F5704F7FF40FAE95F83C301BB17A
:10C68000002385F83C3007E695F8402012B185F884
:10C69000403001E695F83E3013B185F83E20FBE5C9
:10C6A00095F8422012B185F84230F5E595F828302A
:10C6B00013B185F82820EFE5012385F84430EBE538
:10C6C000A3896FEA03536FEAD3439BB2A381B3F507
:10C6D000704F7FF4ECAD95F83D301BB1002385F829
:10C6E0003D30E4E595F8412012B185F84130DEE5B2
:10C6F00095F83F30B3B185F83F20D8E500000240FF
:10C70000000802400018024038040020880300207E
:10C7100080030020300000200006002000100240AE
:10C720005004002095F8432012B185F84330BEE54F
:10C7300095F8293013B185F82920B8E5012385F84B
:10C740004530B4E5228A4EF2010343EA42039BB22C
:10C7500023824EF2070293427FF4BCAD294BDB7972
:10C76000002B7FF4B7ADB2E5E2894EF2010343EA54
:10C7700042039BB2E3814EF2070293427FF4BDADC8
:10C78000204BDB79002B7FF4B8ADB3E50023AB641D
:10C790001D4B1B69980631D51C4B1B6959052DD5BE
:10C7A0001B4B1B699A0429D51A4C23699B0725D476
:10C7B000266916F4007621D1EB6C5A1CEA644DF21E
:10C7C000F02293421CD9012085F82D0085F829001C
:10C7D000114B4FF00409A3F818904FF48068A4F8A7
:10C7E00018804FF480572783FFF768FAEE640A4BEE
:10C7F000A3F81A90A4F81A80678301E00023EB6481
:10C80000BDE8F883500400200010024000180240E8
:10C810000008024000000240000C0240054B064A9E
:10C82000C3E900220022C3E90222C3E904229A617B
:10C83000704700BF800000202EF92EF908B5FFF7E1
:10C84000EDFF1D4B00BF013BFCD11B4B00BF013B6B
:10C85000FCD1194B00BF013BFCD1174B00BF013B82
:10C86000FCD11846154A1188C1F30B01C1F50061CE
:10C8700061F30F035188C1F30B01C1F5006161F34E
:10C880001F439188C1F30B01494261F30F00D18826
:10C89000C1F30B01494261F31F400949C1E904306A
:10C8A0001389C3F30B035B420B835389C3F30B035D
:10C8B0005B424B8308BD00BF40420F00780500205B
:10C8C0008000002010B5002108466D4B1A88C2F385
:10C8D0000B02C2F5006262F30F015A88C2F30B0229
:10C8E000C2F5006262F31F419A88C2F30B02524202
:10C8F00062F30F00DA88C2F30B02524262F31F4068
:10C90000604CC4E904101A89C2F30B02524222831C
:10C910005B89C3F30B035B4263835B490A690B6961
:10C92000C2F30032C3F3C02343EA42035BB2574A67
:10C93000126912F0040F564A126912D1012B12D15A
:10C94000530710D553490B885B422381524A138801
:10C950005B4263818B885B42A38193885B42E38166
:10C9600001E0022B0ED0484B1A69D00430D41B6969
:10C970000023E361444B1A69D00454D41B6900239B
:10C98000236210BD5207EED40B695B0504D4434B00
:10C990009B88A3F6D66323803D4B1B69980704D47C
:10C9A0003E4BDB88A3F6D66363803D4B1B6999043D
:10C9B00004D43A4B9B89A3F6D663A380344B1B69FE
:10C9C0009A05D0D4354BDB89A3F6D663E380CAE75A
:10C9D0001A691105CCD52D4A1269520701D42C4B86
:10C9E000C5E72B4A11694807C2D52E49096989064E
:10C9F000BED51B695B05BBD4294B1B699804B7D412
:10CA000013699907B4D413699B05B1D4E369013361
:10CA1000E36140F6B8329342ACD100F083FE224B82
:10CA20000022DA70A6E71A691105A8D4174A12691C
:10CA3000520701D5164BA1E7154A116948079ED543
:10CA40001849096989069AD41B695B0597D4144B68
:10CA50001B69980493D41369990790D413699B05B3
:10CA60008DD4236A0133236242F21072934288D13B
:10CA7000012000F0E7FD0C4B0022DA7081E700BFD7
:10CA800078050020800000200018024000040240C9
:10CA900000000240D0010020D40200200005002048
:10CAA0000008024000100240500400200A4A516A67
:10CAB0000A4B0B4453620A4A6FF000418B4234BF69
:10CAC000012300234FF00001D1542CBF01230B465A
:10CAD0000121D154704700BF80000020675C27000F
:10CAE00024030020114A936A03F59C1303F50063A5
:10CAF00093620F4A93420F4B4FF010020AD25A83AF
:10CB00000D4A4FF4806151834FF400415183042258
:10CB10005A8370471A83084A4FF4806111834FF497
:10CB20000041118304221A83704700BF8000002057
:10CB3000CCCCCC0C000C024000000240012070471D
:10CB400030B583B001210820FDF70CFC0121022043
:10CB5000FDF708FC10250123CDE90053694608487C
:10CB6000FCF79AFF4FF48054009469460548FCF79F
:10CB700093FF034B5D83A3F81A4803B030BD00BF99
:10CB800000040240000C0240F8B506460F46154668
:10CB90002F4C4FF4961323604FF400312846FDF7D5
:10CBA0001DFA30B123685A1E2260002BF4D10120F7
:10CBB000F8BD01212846FDF7E1F84FF480532360CA
:10CBC00024492846FDF7F4F928B923685A1E226043
:10CBD000002BF5D1EBE7002220212846FDF7EAF8EB
:10CBE0004FF4805323601C492846FDF7E1F928B92A
:10CBF00023685A1E2260002BF5D1D8E7314628461B
:10CC0000FDF76EF94FF48053236014492846FDF771
:10CC1000CFF928B923685A1E2260002BF5D1C6E748
:10CC200039462846FDF75CF94FF4961323600C490A
:10CC30002846FDF7D3F928B923685A1E2260002B35
:10CC4000F5D1B4E701212846FDF7A6F80020AFE7AB
:10CC50001800002001000300820007008000070088
:10CC600004000010F8B506460F461546024603219B
:10CC70000720FFF789FF0446012F0ED00DB3174F91
:10CC800000250135EDB2324617F8011B2846FFF7A3
:10CC90007BFF0444062DF4D10CE0114F0025013533
:10CCA000EDB2324617F8011B2846FFF76DFF04442A
:10CCB000062DF4D1324602210720FFF765FF2044FC
:10CCC000F8BD084F0135EDB2324617F8011B284672
:10CCD000FFF75AFF0444062DF4D1EBE74012010898
:10CCE0003812010848120108F0B585B001214FF44F
:10CCF0008000FDF75BFB164F164ECDE901764FF431
:10CD00008045ADF80C504CF2503400941248FCF7BA
:10CD100059FF69461048FCF78BFF01210E48FDF7CB
:10CD200007F801214FF40010FDF740FBCDE9017633
:10CD3000ADF80C5000940948FCF744FF69460748D9
:10CD4000FCF776FF01210548FCF7F2FF05B0F0BDC6
:10CD50000000FFBF330000040058004000540040B2
:10CD600038B50446FFF7C0FF0D4B10221A834CF272
:10CD7000503100BF0139FCD122460A48FFF772FF4B
:10CD80000546094B4FF480521A834CF2503100BFD4
:10CD90000139FCD122460548FFF764FF284438BD1D
:10CDA0000004024000540040000C024000580040C3
:10CDB00070B584B0044601214FF48040FDF7F6FAC7
:10CDC0001E48FDF7D5FB02940023ADF80C304FF45C
:10CDD00000761B4DCDE9006569461848FDF75CFCFF
:10CDE00069461848FDF736FD01211448FDF7DCFCC3
:10CDF00001211448FDF7D8FC01214FF40040FDF754
:10CE0000D5FA1148FDF7B4FB02940823ADF80C30B5
:10CE1000CDE9006569460C48FDF73EFC69464FF0D8
:10CE20004020FDF717FD01210748FDF7BDFC01215A
:10CE30004FF04020FDF7B8FC04B070BD0038004052
:10CE40000300000200340040003C004030B583B0D5
:10CE500001210620FDF786FA01210720FDF782FA5D
:10CE60004FF440634D4ACDE9003269464C48FCF727
:10CE700013FE4FF44073009369464948FCF70CFEDB
:10CE8000042208214648FCF789FE0422092144486F
:10CE9000FCF784FE04220A214148FCF77FFE0422AD
:10CEA0000B213F48FCF77AFE4FF4805540F20234E4
:10CEB000CDE9005469463A48FCF7EEFD4FF4804353
:10CEC000009369463648FCF7E7FD4FF400530093A2
:10CED00069463348FCF7E0FD4FF400430093694690
:10CEE0002F48FCF7D9FD1023009369462D48FCF725
:10CEF000D3FD4FF40063009369462B48FCF7CCFD4B
:10CF00004FF48063009369462748FCF7C5FD009500
:10CF100069462548FCF7C0FD05220C212048FCF796
:10CF20003DFE05220D211E48FCF738FE05220F218B
:10CF30001B48FCF733FE05220E211948FCF72EFE94
:10CF4000062204211748FCF729FE06220A2116486A
:10CF5000FCF724FE06220C211348FCF71FFE0522D5
:10CF60000B211148FCF71AFE0194802300936946B7
:10CF70000D48FCF791FD062207210B48FCF70EFE39
:10CF800001944023009369460748FCF785FD05227C
:10CF900006210548FCF702FE03B030BD0202010085
:10CFA00000040240000002400008024000B583B0C7
:10CFB0000120FDF78DF94FF4007240F20233CDE904
:10CFC000002369460548FCF767FD0522092103484F
:10CFD000FCF7E4FD03B05DF804FB00BF000802406D
:10CFE00007EE900AF8EE677A0A4BC3ED007A27EE57
:10CFF000A77A27EE007AF7EE006A76EEC06A27EE8F
:10D00000267A83ED017A67EE807AFDEEE77AC3ED4A
:10D01000027A7047AC000020114A07EE900AF8EE41
:10D02000E77A92ED017AC7EE276A936883420DDBB7
:10D030005B42834209DDD2ED007AF1EE677A77EE4A
:10D04000E67AFDEEE77A17EE900A7047D2ED007AA5
:10D0500077EEE67AFDEEE77A17EE900A704700BFAA
:10D06000AC0000202DE9F04F83B06846FCF75AFD74
:10D070000124019421462046FDF774F94FF4C05372
:10D08000009369468548FCF707FD21461020FDF70F
:10D0900069F94FF0100ACDF800A069468048FCF706
:10D0A000FBFC21460820FDF75DF9CDF800A069469C
:10D0B0007C48FCF7F1FC21462046FDF753F94FF47C
:10D0C0008062009269467548FCF7E6FC21462046DE
:10D0D000FDF748F94FF40043009369466F48FCF7A9
:10D0E000DBFC21460820FDF73DF904250095694643
:10D0F0006C48FCF7D1FC21461520FDF733F94FF0C1
:10D100000808CDF8008069466548FCF7C5FC4FF477
:10D110008076009669466448FCF7BEFC202700979D
:10D1200069466148FCF7B8FC5D4AA2F81A805E497E
:10D130004E834F8321461B20FDF714F90097694663
:10D140005848FCF7A9FC4026009669465548FCF76C
:10D15000A3FC4FF08009CDF8009069465348FCF7D6
:10D160009BFC009669464E48FCF796FC4D494F8360
:10D170004E83A1F50061A1F81A90494A56834FF4F5
:10D180000073ADF804308DF8074021461320FDF7F9
:10D19000E9F84FF40062009269464548FCF77CFCD0
:10D1A0004FF48051009169464148FCF775FC0095A9
:10D1B00069463A48FCF770FC009569463B48FCF725
:10D1C0006BFC21464120FDF7CDF84FF0020BCDF866
:10D1D00000B069463148FCF75FFC4FF48062009272
:10D1E00069463348FCF758FC21465046FDF7BAF82B
:10D1F000009769462A48FCF74FFC00228DF807206B
:10D20000009569462648FCF747FC21464D20FDF76E
:10D21000A9F88DF807404FF4005200926946224861
:10D22000FCF73AFC4FF40073009369461B48FCF787
:10D2300033FC8DF807B0CDF8009069461948FCF72B
:10D240002BFC009669461A48FCF726FC214640460E
:10D25000FDF788F84FF40062009269461148FCF728
:10D260001BFCCDF8008069460E48FCF715FC8DF8D4
:10D27000074021462846FDF775F84FF40043009318
:10D2800069460948FCF708FC4FF48043009369465F
:10D290000548FCF701FC03B0BDE8F08F0000024038
:10D2A00000100240000C024000080240000402404E
:10D2B00000180240F8B506460027FBF70FFDF320E3
:10D2C000FBF7A2FD0A4D3C4602E00834602C0AD070
:10D2D00055F8043BB342F8D102212046FBF7CCFDC0
:10D2E0000743FFB2F1E7FBF709FD3846F8BD00BF81
:10D2F00050120108F8B506460027094D3C4602E0E9
:10D300000834602C0AD055F8043BB342F8D102210E
:10D310002046FBF7B1FD0743FFB2F1E73846F8BD01
:10D320005012010808B5FBF7D9FCF320BDE808400E
:10D33000FBF76ABD0B4601461846FBF7A3BE00BFCC
:10D340000B4601461846FBF75DBE00BFFBF7D6BC97
:10D35000F8B572B10546871800240E1AA81915F8F9
:10D36000011BFBF78FFE0443E4B2BD42F6D1204619
:10D37000F8BD1446FBE700BF32B10244091A435816
:10D3800000F8013B9042FAD1704700BF0068704737
:10D390000068C0B2704700BF014B05221A60704799
:10D3A000B80000203B4B3C4AB2F900109960B2F93A
:10D3B0000210D960B2F904101961B2F9061059616E
:10D3C000B2F908109961B2F90A20DA61334AB2F968
:10D3D00000101962B2F902105962B2F90410996290
:10D3E000B2F90620DA622E4AB2F900101963B2F9D6
:10D3F00002105963B2F904109963B2F90620DA6396
:10D40000284A51691964D26A5A64274AD2ED007ACF
:10D41000FCEEE77AC3ED127AD2ED017AFCEEE77A00
:10D42000C3ED137AD2ED047AFCEEE77A17EE902A78
:10D4300083F850201D490A7983F851200A7C83F82B
:10D4400052204A7983F85320194A107883F85400FF
:10D45000507883F85500D07983F85600107A83F815
:10D460005700507A83F85800907A83F85900D07AA0
:10D4700083F85A00127B83F85B200A7A83F85C20D9
:10D480000A7D83F85D20CA7A83F85E20CA7D83F81E
:10D490005F207047B800002090000020800000202E
:10D4A0008800002008040020C8050020380400205F
:10D4B000500400202DE9F041FFF734FF4748FFF703
:10D4C00019FF474D2E4656F8080B444900F12A40F3
:10D4D00000F5AA00FFF734FF424C434F214656F8AF
:10D4E000040BFFF72DFF0434BC42F7D13F4E06F189
:10D4F00010073F4CDFF84881214656F8040BFFF730
:10D500001FFFA4F1100157F8040BFFF719FF0434B3
:10D510004445F1D12146286CFFF712FF3549686C6C
:10D52000FFF70EFF344995F85000FFF703FF33492A
:10D5300095F85100FFF7FEFE314995F85200FFF7CC
:10D54000F9FE304995F85300FFF7F4FE2E4995F89F
:10D550005400FFF7EFFE2D4995F85500FFF7EAFE5E
:10D560002B4995F85C00FFF7E5FE2A4995F85D0028
:10D57000FFF7E0FE2849A86CFFF7E2FE2749E86CB8
:10D58000FFF7DEFE264995F85600FFF7D3FE254942
:10D5900095F85700FFF7CEFE234995F85800FFF79E
:10D5A000C9FE224995F85900FFF7C4FE204995F8B5
:10D5B0005A00FFF7BFFE1F4995F85B00FFF7BAFE60
:10D5C0001D4995F85E00FFF7B5FE1C4995F85F0010
:10D5D000FFF7B0FEBDE8F041FFF7B8BE004000081D
:10D5E000B8000020044000081C400008D8000020BB
:10D5F0002C40000840400008444000084540000816
:10D6000046400008474000084840000849400008DC
:10D610004A4000084B4000084C40000850400008B9
:10D620005440000855400008564000085740000884
:10D6300058400008594000085A4000085B40000864
:10D640003C4000082DE9F84F0746FFF7F7F82F4B4D
:10D6500005221A6002F0CEFE2D4B10265E832D4C63
:10D660004FF4004222832C4D4FF0040BA5F818B064
:10D670004FF4006AA4F81AA04FF48059A4F81A9045
:10D680002E834FF48068A4F81880FFF78BFEFFF715
:10D6900011FF1F4B5E834FF400426283A5F81AB05E
:10D6A000A4F81AA0A4F81A906E83A4F81A8057B3AD
:10D6B0001A4A02F10C00002132F9023B64339BB29A
:10D6C000C82B88BF41F001019042F5D1144A13885C
:10D6D000A3F29E739BB2C82B11D8B2F9023040F668
:10D6E000660293420BDC40F29D729342D8BF41F038
:10D6F0000101C9B219B90A2000F062FDFBE7C82098
:10D7000000F0FCFDFBE7BDE8F88F00BFB80000208B
:10D710000010024000000240000C02409000002077
:10D720006C0500202DE9F84F204C4FF4004BA4F875
:10D7300018B01F4D4FF0040AA5F818A04FF4006967
:10D74000A4F818904FF48058A4F8188010262E835F
:10D750004FF480672783FFF725FEFFF7ABFE0A2211
:10D7600014493046DE46D4464883A4F81AE0A5F8AA
:10D770001AC0A4F81A90A4F81A80688367830E4B25
:10D7800000BF013BFCD10E83A4F818B0A5F818A087
:10D79000A4F81890A4F818802E832783064B00BFA6
:10D7A000013BFCD1013ADFD1BDE8F88F0000024017
:10D7B000000C02400010024090D003002DE9F0411F
:10D7C0008448FFF7E3FD844D00F1AB4000F52C10D9
:10D7D0002E4646F8080B814C814F2046FFF7D6FDB8
:10D7E00046F8040B0434BC42F7D17E4E06F1100714
:10D7F0007D4CDFF844822046FFF7C8FD46F8040B55
:10D80000A4F11000FFF7C2FD47F8040B04344445AF
:10D81000F1D12046FFF7BAFD07EE900AF8EE677ADD
:10D82000B7EE047AF4EEC77AF1EE10FA00F3CB808B
:10D83000B6EE087AF4EE477AF1EE10FAB7EE007A17
:10D8400048BFF0EE477AC5ED107A6848FFF79EFDB5
:10D8500007EE900AF8EE677AB7EE047AF4EEC77A2C
:10D86000F1EE10FA00F3B280B6EE087AF4EE477AE1
:10D87000F1EE10FAB7EE007A48BFF0EE477AC5ED48
:10D88000117A5B48FFF782FD431E4BF67F34A342BB
:10D8900088BFC420A8645748FFF778FD431EA34201
:10D8A00088BFC420E8645448FFF772FD831EDBB2D2
:10D8B0001E2B28BF042085F850005048FFF768FD54
:10D8C000003818BF012085F851004D48FFF760FD72
:10D8D000003818BF012085F852004A48FFF758FD6C
:10D8E000003818BF012085F853004748FFF750FD66
:10D8F000003818BF012085F854004448FFF748FD60
:10D90000003818BF012085F855004148FFF740FD59
:10D91000A0F10100B0FA80F0400985F85C003D48B4
:10D92000FFF736FDA0F10100B0FA80F0400985F85C
:10D930005D003948FFF72CFD0B2828BF002085F833
:10D9400058003648FFF724FDA0F10100B0FA80F03E
:10D95000400985F859003248FFF71AFD003818BF12
:10D96000012085F85A002F48FFF712FDA0F10100B1
:10D97000B0FA80F0400985F85B002B48FFF708FDFE
:10D98000003818BF012085F856002848FFF700FD31
:10D99000003818BF012085F857002548FFF7F8FC2C
:10D9A000A0F10100B0FA80F0400985F85E0021483E
:10D9B000FFF7EEFCA0F10100B0FA80F0400985F815
:10D9C0005F00BDE8F081F7EE007A3CE7F7EE007A01
:10D9D00055E700BF00400008B800002004400008E0
:10D9E0001C400008D80000202C40000840400008DF
:10D9F0004C400008504000084440000845400008E2
:10DA000046400008474000084840000849400008D8
:10DA10004A4000084B4000085640000857400008A4
:10DA2000584000085940000854400008554000087C
:10DA30005A4000085B4000083C40000870B5FFF702
:10DA4000BDFE4D4C2368013BB3F5F97F00F28F809A
:10DA50004A4B226B1A80626B5A80A26B9A80E26BEF
:10DA6000DA80474B226A1A80626A5A80A26A9A80D8
:10DA7000E26ADA80434BA2681A80E2685A8022691F
:10DA80009A806269DA80A2691A81E2695A813E4B02
:10DA9000226C5A61626CDA623C4E94F8503007EEA8
:10DAA000903AF8EE677AC6ED047A394D94F8513021
:10DAB0002B7194F852302B7494F853306B71354BB2
:10DAC00094F854201A7094F855205A70002294F853
:10DAD000561061F3070294F8571061F30F2294F87F
